{
  "transactions": [
    {
      "hash": "0x55f5955a48ba8dec294b924c643b5540a484f6ef98bce371e049925014b4f263",
      "transactionType": "CALL",
      "contractName": "LinkToken",
      "contractAddress": "0x779877a7b0d9e8603169ddbd7836e478b4624789",
      "function": "transferAndCall(address,uint256,bytes)",
      "arguments": [
        "0x9DdfaCa8183c41ad55329BdeeD9F6A8d53168B1B",
        "3000000000000000000",
        "0x672f7ac4148703c53f90aad82f234ed00f90321a4e503d220fd8c38761f123ef"
      ],
      "transaction": {
        "from": "0xc29504f0e7fcff92cd5e9231241adfc5a17dc5ef",
        "to": "0x779877a7b0d9e8603169ddbd7836e478b4624789",
        "gas": "0x1c1ff",
        "value": "0x0",
        "input": "0x4000aea00000000000000000000000009ddfaca8183c41ad55329bdeed9f6a8d53168b1b00000000000000000000000000000000000000000000000029a2241af62c000000000000000000000000000000000000000000000000000000000000000000600000000000000000000000000000000000000000000000000000000000000020672f7ac4148703c53f90aad82f234ed00f90321a4e503d220fd8c38761f123ef",
        "nonce": "0x5",
        "chainId": "0xaa36a7"
      },
      "additionalContracts": [],
      "isFixedGasLimit": false
    }
  ],
  "receipts": [
    {
      "status": "0x1",
      "cumulativeGasUsed": "0xf67d7f",
      "logs": [
        {
          "address": "0x779877a7b0d9e8603169ddbd7836e478b4624789",
          "topics": [
            "0xddf252ad1be2c89b69c2b068fc378daa952ba7f163c4a11628f55a4df523b3ef",
            "0x000000000000000000000000c29504f0e7fcff92cd5e9231241adfc5a17dc5ef",
            "0x0000000000000000000000009ddfaca8183c41ad55329bdeed9f6a8d53168b1b"
          ],
          "data": "0x00000000000000000000000000000000000000000000000029a2241af62c0000",
          "blockHash": "0xfd40f8cfd0771539a9f201549f712d598a3dd586ae08e944b83648d4521b8c86",
          "blockNumber": "0x6235d2",
          "transactionHash": "0x55f5955a48ba8dec294b924c643b5540a484f6ef98bce371e049925014b4f263",
          "transactionIndex": "0x34",
          "logIndex": "0x105",
          "removed": false
        },
        {
          "address": "0x779877a7b0d9e8603169ddbd7836e478b4624789",
          "topics": [
            "0xe19260aff97b920c7df27010903aeb9c8d2be5d310a2c67824cf3f15396e4c16",
            "0x000000000000000000000000c29504f0e7fcff92cd5e9231241adfc5a17dc5ef",
            "0x0000000000000000000000009ddfaca8183c41ad55329bdeed9f6a8d53168b1b"
          ],
          "data": "0x00000000000000000000000000000000000000000000000029a2241af62c000000000000000000000000000000000000000000000000000000000000000000400000000000000000000000000000000000000000000000000000000000000020672f7ac4148703c53f90aad82f234ed00f90321a4e503d220fd8c38761f123ef",
          "blockHash": "0xfd40f8cfd0771539a9f201549f712d598a3dd586ae08e944b83648d4521b8c86",
          "blockNumber": "0x6235d2",
          "transactionHash": "0x55f5955a48ba8dec294b924c643b5540a484f6ef98bce371e049925014b4f263",
          "transactionIndex": "0x34",
          "logIndex": "0x106",
          "removed": false
        },
        {
          "address": "0x9ddfaca8183c41ad55329bdeed9f6a8d53168b1b",
          "topics": [
            "0x1ced9348ff549fceab2ac57cd3a9de38edaaab274b725ee82c23e8fc8c4eec7a",
            "0x672f7ac4148703c53f90aad82f234ed00f90321a4e503d220fd8c38761f123ef"
          ],
          "data": "0x000000000000000000000000000000000000000000000000000000000000000000000000000000000000000000000000000000000000000029a2241af62c0000",
          "blockHash": "0xfd40f8cfd0771539a9f201549f712d598a3dd586ae08e944b83648d4521b8c86",
          "blockNumber": "0x6235d2",
          "transactionHash": "0x55f5955a48ba8dec294b924c643b5540a484f6ef98bce371e049925014b4f263",
          "transactionIndex": "0x34",
          "logIndex": "0x107",
          "removed": false
        }
      ],
      "logsBloom": "0x00000004000000000000000000000000000000000020000000000000020000000000000000000000000000000000000000000010000000000000000800000000000000000000000000000008000000000000000000000000000020000020000008100000000000000000000000000000100000000000000000800010000040000000000000000000000040010000800000000020000000000000000000000000000000000000000000000000010000000000000000000000000004000000000000000002000000000000000000000000000000000000000100000000000000000010000000000000800000000000000000000000000000000000000000000000",
      "type": "0x2",
      "transactionHash": "0x55f5955a48ba8dec294b924c643b5540a484f6ef98bce371e049925014b4f263",
      "transactionIndex": "0x34",
      "blockHash": "0xfd40f8cfd0771539a9f201549f712d598a3dd586ae08e944b83648d4521b8c86",
      "blockNumber": "0x6235d2",
      "gasUsed": "0x133b1",
      "effectiveGasPrice": "0x102bf8875",
      "from": "0xc29504f0e7fcff92cd5e9231241adfc5a17dc5ef",
      "to": "0x779877a7b0d9e8603169ddbd7836e478b4624789",
      "contractAddress": null
    }
  ],
  "libraries": [],
  "pending": [],
  "returns": {},
  "timestamp": 1722787445,
  "chain": 11155111,
  "commit": "cbc2252"
}